{
  "contractName": "CloseSea",
  "abi": [
    {
      "inputs": [],
      "stateMutability": "nonpayable",
      "type": "constructor"
    },
    {
      "anonymous": false,
      "inputs": [
        {
          "indexed": true,
          "internalType": "address",
          "name": "_owner",
          "type": "address"
        },
        {
          "indexed": true,
          "internalType": "address",
          "name": "_approved",
          "type": "address"
        },
        {
          "indexed": true,
          "internalType": "uint256",
          "name": "_tokenId",
          "type": "uint256"
        }
      ],
      "name": "Approval",
      "type": "event"
    },
    {
      "anonymous": false,
      "inputs": [
        {
          "indexed": true,
          "internalType": "address",
          "name": "_from",
          "type": "address"
        },
        {
          "indexed": true,
          "internalType": "address",
          "name": "_to",
          "type": "address"
        },
        {
          "indexed": true,
          "internalType": "uint256",
          "name": "_tokenId",
          "type": "uint256"
        }
      ],
      "name": "Transfer",
      "type": "event"
    },
    {
      "inputs": [
        {
          "internalType": "address",
          "name": "_to",
          "type": "address"
        },
        {
          "internalType": "uint256",
          "name": "_tokenId",
          "type": "uint256"
        }
      ],
      "name": "approve",
      "outputs": [],
      "stateMutability": "nonpayable",
      "type": "function"
    },
    {
      "inputs": [
        {
          "internalType": "address",
          "name": "_owner",
          "type": "address"
        }
      ],
      "name": "balanceOf",
      "outputs": [
        {
          "internalType": "uint256",
          "name": "balance",
          "type": "uint256"
        }
      ],
      "stateMutability": "view",
      "type": "function"
    },
    {
      "inputs": [],
      "name": "name",
      "outputs": [
        {
          "internalType": "string",
          "name": "",
          "type": "string"
        }
      ],
      "stateMutability": "view",
      "type": "function"
    },
    {
      "inputs": [
        {
          "internalType": "uint256",
          "name": "",
          "type": "uint256"
        }
      ],
      "name": "nftArr",
      "outputs": [
        {
          "internalType": "string",
          "name": "",
          "type": "string"
        }
      ],
      "stateMutability": "view",
      "type": "function"
    },
    {
      "inputs": [
        {
          "internalType": "uint256",
          "name": "_tokenId",
          "type": "uint256"
        }
      ],
      "name": "ownerOf",
      "outputs": [
        {
          "internalType": "address",
          "name": "owner",
          "type": "address"
        }
      ],
      "stateMutability": "view",
      "type": "function"
    },
    {
      "inputs": [
        {
          "internalType": "bytes4",
          "name": "interfaceId",
          "type": "bytes4"
        }
      ],
      "name": "supportsInterface",
      "outputs": [
        {
          "internalType": "bool",
          "name": "",
          "type": "bool"
        }
      ],
      "stateMutability": "view",
      "type": "function"
    },
    {
      "inputs": [],
      "name": "symbol",
      "outputs": [
        {
          "internalType": "string",
          "name": "",
          "type": "string"
        }
      ],
      "stateMutability": "view",
      "type": "function"
    },
    {
      "inputs": [
        {
          "internalType": "uint256",
          "name": "index",
          "type": "uint256"
        }
      ],
      "name": "tokenByIndex",
      "outputs": [
        {
          "internalType": "uint256",
          "name": "",
          "type": "uint256"
        }
      ],
      "stateMutability": "view",
      "type": "function"
    },
    {
      "inputs": [
        {
          "internalType": "address",
          "name": "owner",
          "type": "address"
        },
        {
          "internalType": "uint256",
          "name": "index",
          "type": "uint256"
        }
      ],
      "name": "tokenOfOwnerByIndex",
      "outputs": [
        {
          "internalType": "uint256",
          "name": "",
          "type": "uint256"
        }
      ],
      "stateMutability": "view",
      "type": "function"
    },
    {
      "inputs": [],
      "name": "totalSupply",
      "outputs": [
        {
          "internalType": "uint256",
          "name": "",
          "type": "uint256"
        }
      ],
      "stateMutability": "view",
      "type": "function"
    },
    {
      "inputs": [
        {
          "internalType": "address",
          "name": "_from",
          "type": "address"
        },
        {
          "internalType": "address",
          "name": "_to",
          "type": "address"
        },
        {
          "internalType": "uint256",
          "name": "_tokenId",
          "type": "uint256"
        }
      ],
      "name": "transferFrom",
      "outputs": [],
      "stateMutability": "nonpayable",
      "type": "function"
    },
    {
      "inputs": [
        {
          "internalType": "string",
          "name": "_nft",
          "type": "string"
        }
      ],
      "name": "mint",
      "outputs": [],
      "stateMutability": "nonpayable",
      "type": "function"
    }
  ],
  "bytecode": "0x60806040523480156200001157600080fd5b506040518060400160405280600881526020017f436c6f73655365610000000000000000000000000000000000000000000000008152506040518060400160405280600381526020017f434c5300000000000000000000000000000000000000000000000000000000008152508181620000b17f01ffc9a7a5cef8baa21ed3c5c0d7e23accb804b619e9333b597f47a0d84076e26200022a60201b60201c565b620001047f13b182f4c0e5b2efbac0efe6cf6d756c8b89f4b79c5707a043ed9ea740574ee97f7feaf19471f34a12a7eaf32d5f3090aa2260ea8624dc8a138e74e0bf0f623076186200022a60201b60201c565b81600190805190602001906200011c92919062000302565b5080600290805190602001906200013592919062000302565b505050620001ad7f22c82707ba960a14c7592ffb6b8cfaa073fed0048a84cc7fa41f6b5bd8e7f2e47f3a6eb71757dfc6e784c1459d26270140c2c147d95ca985c80026fc5301c3eca17f8a7e378434598edc36d108689a030cbc9d7d465de4f74c71bae1028eed6a881b18186200022a60201b60201c565b620002227f8230223f691b981717299fae9549350a0d894555723531f02108b1f522c1a7977f6da5e1284143cdd2d15038a59bde3be031250f00291d64494c12d967b3a4e0c37fc53637662700e6c65104059db8bba34439e0c32483ab7c34e3ccae52c739549518186200022a60201b60201c565b50506200049a565b63ffffffff60e01b817bffffffffffffffffffffffffffffffffffffffffffffffffffffffff1916141562000296576040517f08c379a00000000000000000000000000000000000000000000000000000000081526004016200028d9062000413565b60405180910390fd5b6001600080837bffffffffffffffffffffffffffffffffffffffffffffffffffffffff19167bffffffffffffffffffffffffffffffffffffffffffffffffffffffff1916815260200190815260200160002060006101000a81548160ff02191690831515021790555050565b828054620003109062000464565b90600052602060002090601f01602090048101928262000334576000855562000380565b82601f106200034f57805160ff191683800117855562000380565b8280016001018555821562000380579182015b828111156200037f57825182559160200191906001019062000362565b5b5090506200038f919062000393565b5090565b5b80821115620003ae57600081600090555060010162000394565b5090565b600082825260208201905092915050565b7f496e76616c696420696e74657266616365204944000000000000000000000000600082015250565b6000620003fb601483620003b2565b91506200040882620003c3565b602082019050919050565b600060208201905081810360008301526200042e81620003ec565b9050919050565b7f4e487b7100000000000000000000000000000000000000000000000000000000600052602260045260246000fd5b600060028204905060018216806200047d57607f821691505b6020821081141562000494576200049362000435565b5b50919050565b611de680620004aa6000396000f3fe608060405234801561001057600080fd5b50600436106100b45760003560e01c80634f6ccce7116100715780634f6ccce71461018d5780636352211e146101bd578063645d6f52146101ed57806370a082311461021d57806395d89b411461024d578063d85d3d271461026b576100b4565b806301ffc9a7146100b957806306fdde03146100e9578063095ea7b31461010757806318160ddd1461012357806323b872dd146101415780632f745c591461015d575b600080fd5b6100d360048036038101906100ce91906111b8565b610287565b6040516100e09190611200565b60405180910390f35b6100f16102ee565b6040516100fe91906112b4565b60405180910390f35b610121600480360381019061011c919061136a565b610380565b005b61012b610526565b60405161013891906113b9565b60405180910390f35b61015b600480360381019061015691906113d4565b610533565b005b6101776004803603810190610172919061136a565b610602565b60405161018491906113b9565b60405180910390f35b6101a760048036038101906101a29190611427565b6106b2565b6040516101b491906113b9565b60405180910390f35b6101d760048036038101906101d29190611427565b610723565b6040516101e49190611463565b60405180910390f35b61020760048036038101906102029190611427565b610760565b60405161021491906112b4565b60405180910390f35b6102376004803603810190610232919061147e565b61080c565b60405161024491906113b9565b60405180910390f35b6102556108cb565b60405161026291906112b4565b60405180910390f35b610285600480360381019061028091906115e0565b61095d565b005b6000806000837bffffffffffffffffffffffffffffffffffffffffffffffffffffffff19167bffffffffffffffffffffffffffffffffffffffffffffffffffffffff1916815260200190815260200160002060009054906101000a900460ff169050919050565b6060600180546102fd90611658565b80601f016020809104026020016040519081016040528092919081815260200182805461032990611658565b80156103765780601f1061034b57610100808354040283529160200191610376565b820191906000526020600020905b81548152906001019060200180831161035957829003601f168201915b5050505050905090565b8173ffffffffffffffffffffffffffffffffffffffff166103a082610723565b73ffffffffffffffffffffffffffffffffffffffff1614156103f7576040517f08c379a00000000000000000000000000000000000000000000000000000000081526004016103ee906116fc565b60405180910390fd5b3373ffffffffffffffffffffffffffffffffffffffff1661041782610723565b73ffffffffffffffffffffffffffffffffffffffff161461046d576040517f08c379a00000000000000000000000000000000000000000000000000000000081526004016104649061178e565b60405180910390fd5b816005600083815260200190815260200160002060006101000a81548173ffffffffffffffffffffffffffffffffffffffff021916908373ffffffffffffffffffffffffffffffffffffffff160217905550808273ffffffffffffffffffffffffffffffffffffffff166104e083610723565b73ffffffffffffffffffffffffffffffffffffffff167f8c5be1e5ebec7d5bd14f71427d1e84f3dd0314c0f7b2291e5b200ac8c7c3b92560405160405180910390a45050565b6000600680549050905090565b61053d3382610a60565b61057c576040517f08c379a0000000000000000000000000000000000000000000000000000000008152600401610573906117fa565b60405180910390fd5b8273ffffffffffffffffffffffffffffffffffffffff1661059c82610723565b73ffffffffffffffffffffffffffffffffffffffff16146105f2576040517f08c379a00000000000000000000000000000000000000000000000000000000081526004016105e99061188c565b60405180910390fd5b6105fd838383610aef565b505050565b600061060d8361080c565b821061064e576040517f08c379a0000000000000000000000000000000000000000000000000000000008152600401610645906118f8565b60405180910390fd5b600860008473ffffffffffffffffffffffffffffffffffffffff1673ffffffffffffffffffffffffffffffffffffffff168152602001908152602001600020828154811061069f5761069e611918565b5b9060005260206000200154905092915050565b60006106bc610526565b82106106fd576040517f08c379a00000000000000000000000000000000000000000000000000000000081526004016106f490611993565b60405180910390fd5b6006828154811061071157610710611918565b5b90600052602060002001549050919050565b60006003600083815260200190815260200160002060009054906101000a900473ffffffffffffffffffffffffffffffffffffffff169050919050565b600b818154811061077057600080fd5b90600052602060002001600091509050805461078b90611658565b80601f01602080910402602001604051908101604052809291908181526020018280546107b790611658565b80156108045780601f106107d957610100808354040283529160200191610804565b820191906000526020600020905b8154815290600101906020018083116107e757829003601f168201915b505050505081565b60008073ffffffffffffffffffffffffffffffffffffffff168273ffffffffffffffffffffffffffffffffffffffff16141561087d576040517f08c379a0000000000000000000000000000000000000000000000000000000008152600401610874906119ff565b60405180910390fd5b6108c4600460008473ffffffffffffffffffffffffffffffffffffffff1673ffffffffffffffffffffffffffffffffffffffff168152602001908152602001600020610d15565b9050919050565b6060600280546108da90611658565b80601f016020809104026020016040519081016040528092919081815260200182805461090690611658565b80156109535780601f1061092857610100808354040283529160200191610953565b820191906000526020600020905b81548152906001019060200180831161093657829003601f168201915b5050505050905090565b600c8160405161096d9190611a5b565b908152602001604051809103902060009054906101000a900460ff16156109c9576040517f08c379a00000000000000000000000000000000000000000000000000000000081526004016109c090611abe565b60405180910390fd5b600b81908060018154018082558091505060019003906000526020600020016000909190919091509080519060200190610a049291906110a9565b5060006001600b80549050610a199190611b0d565b9050610a253382610d23565b6001600c83604051610a379190611a5b565b908152602001604051809103902060006101000a81548160ff0219169083151502179055505050565b6000610a6b82610d44565b610aaa576040517f08c379a0000000000000000000000000000000000000000000000000000000008152600401610aa190611b8d565b60405180910390fd5b6000610ab583610723565b90508373ffffffffffffffffffffffffffffffffffffffff168173ffffffffffffffffffffffffffffffffffffffff161491505092915050565b600073ffffffffffffffffffffffffffffffffffffffff168273ffffffffffffffffffffffffffffffffffffffff161415610b5f576040517f08c379a0000000000000000000000000000000000000000000000000000000008152600401610b5690611c1f565b60405180910390fd5b8273ffffffffffffffffffffffffffffffffffffffff16610b7f82610723565b73ffffffffffffffffffffffffffffffffffffffff1614610bd5576040517f08c379a0000000000000000000000000000000000000000000000000000000008152600401610bcc9061188c565b60405180910390fd5b610c1c600460008573ffffffffffffffffffffffffffffffffffffffff1673ffffffffffffffffffffffffffffffffffffffff168152602001908152602001600020610db0565b610c63600460008473ffffffffffffffffffffffffffffffffffffffff1673ffffffffffffffffffffffffffffffffffffffff168152602001908152602001600020610dcd565b816003600083815260200190815260200160002060006101000a81548173ffffffffffffffffffffffffffffffffffffffff021916908373ffffffffffffffffffffffffffffffffffffffff160217905550808273ffffffffffffffffffffffffffffffffffffffff168473ffffffffffffffffffffffffffffffffffffffff167fddf252ad1be2c89b69c2b068fc378daa952ba7f163c4a11628f55a4df523b3ef60405160405180910390a4505050565b600081600001549050919050565b610d2d8282610dea565b610d3681610f9c565b610d408282610fe5565b5050565b60008073ffffffffffffffffffffffffffffffffffffffff166003600084815260200190815260200160002060009054906101000a900473ffffffffffffffffffffffffffffffffffffffff1673ffffffffffffffffffffffffffffffffffffffff1614159050919050565b806000016000815480929190610dc590611c3f565b919050555050565b806000016000815480929190610de290611c69565b919050555050565b600073ffffffffffffffffffffffffffffffffffffffff168273ffffffffffffffffffffffffffffffffffffffff161415610e5a576040517f08c379a0000000000000000000000000000000000000000000000000000000008152600401610e5190611d24565b60405180910390fd5b610e6381610d44565b15610ea3576040517f08c379a0000000000000000000000000000000000000000000000000000000008152600401610e9a90611d90565b60405180910390fd5b816003600083815260200190815260200160002060006101000a81548173ffffffffffffffffffffffffffffffffffffffff021916908373ffffffffffffffffffffffffffffffffffffffff160217905550610f3c600460008473ffffffffffffffffffffffffffffffffffffffff1673ffffffffffffffffffffffffffffffffffffffff168152602001908152602001600020610dcd565b808273ffffffffffffffffffffffffffffffffffffffff16600073ffffffffffffffffffffffffffffffffffffffff167fddf252ad1be2c89b69c2b068fc378daa952ba7f163c4a11628f55a4df523b3ef60405160405180910390a45050565b6006805490506007600083815260200190815260200160002081905550600681908060018154018082558091505060019003906000526020600020016000909190919091505550565b600860008373ffffffffffffffffffffffffffffffffffffffff1673ffffffffffffffffffffffffffffffffffffffff168152602001908152602001600020819080600181540180825580915050600190039060005260206000200160009091909190915055600860008373ffffffffffffffffffffffffffffffffffffffff1673ffffffffffffffffffffffffffffffffffffffff1681526020019081526020016000208054905060096000838152602001908152602001600020819055505050565b8280546110b590611658565b90600052602060002090601f0160209004810192826110d7576000855561111e565b82601f106110f057805160ff191683800117855561111e565b8280016001018555821561111e579182015b8281111561111d578251825591602001919060010190611102565b5b50905061112b919061112f565b5090565b5b80821115611148576000816000905550600101611130565b5090565b6000604051905090565b600080fd5b600080fd5b60007fffffffff0000000000000000000000000000000000000000000000000000000082169050919050565b61119581611160565b81146111a057600080fd5b50565b6000813590506111b28161118c565b92915050565b6000602082840312156111ce576111cd611156565b5b60006111dc848285016111a3565b91505092915050565b60008115159050919050565b6111fa816111e5565b82525050565b600060208201905061121560008301846111f1565b92915050565b600081519050919050565b600082825260208201905092915050565b60005b8381101561125557808201518184015260208101905061123a565b83811115611264576000848401525b50505050565b6000601f19601f8301169050919050565b60006112868261121b565b6112908185611226565b93506112a0818560208601611237565b6112a98161126a565b840191505092915050565b600060208201905081810360008301526112ce818461127b565b905092915050565b600073ffffffffffffffffffffffffffffffffffffffff82169050919050565b6000611301826112d6565b9050919050565b611311816112f6565b811461131c57600080fd5b50565b60008135905061132e81611308565b92915050565b6000819050919050565b61134781611334565b811461135257600080fd5b50565b6000813590506113648161133e565b92915050565b6000806040838503121561138157611380611156565b5b600061138f8582860161131f565b92505060206113a085828601611355565b9150509250929050565b6113b381611334565b82525050565b60006020820190506113ce60008301846113aa565b92915050565b6000806000606084860312156113ed576113ec611156565b5b60006113fb8682870161131f565b935050602061140c8682870161131f565b925050604061141d86828701611355565b9150509250925092565b60006020828403121561143d5761143c611156565b5b600061144b84828501611355565b91505092915050565b61145d816112f6565b82525050565b60006020820190506114786000830184611454565b92915050565b60006020828403121561149457611493611156565b5b60006114a28482850161131f565b91505092915050565b600080fd5b600080fd5b7f4e487b7100000000000000000000000000000000000000000000000000000000600052604160045260246000fd5b6114ed8261126a565b810181811067ffffffffffffffff8211171561150c5761150b6114b5565b5b80604052505050565b600061151f61114c565b905061152b82826114e4565b919050565b600067ffffffffffffffff82111561154b5761154a6114b5565b5b6115548261126a565b9050602081019050919050565b82818337600083830152505050565b600061158361157e84611530565b611515565b90508281526020810184848401111561159f5761159e6114b0565b5b6115aa848285611561565b509392505050565b600082601f8301126115c7576115c66114ab565b5b81356115d7848260208601611570565b91505092915050565b6000602082840312156115f6576115f5611156565b5b600082013567ffffffffffffffff8111156116145761161361115b565b5b611620848285016115b2565b91505092915050565b7f4e487b7100000000000000000000000000000000000000000000000000000000600052602260045260246000fd5b6000600282049050600182168061167057607f821691505b6020821081141561168457611683611629565b5b50919050565b7f43616e6e6f7420617070726f7665206120746f6b656e20796f7520616c72656160008201527f6479206f776e2100000000000000000000000000000000000000000000000000602082015250565b60006116e6602783611226565b91506116f18261168a565b604082019050919050565b60006020820190508181036000830152611715816116d9565b9050919050565b7f43616e6e6f7420617070726f7665206120746f6b656e20796f7520646f206e6f60008201527f74206f776e210000000000000000000000000000000000000000000000000000602082015250565b6000611778602683611226565b91506117838261171c565b604082019050919050565b600060208201905081810360008301526117a78161176b565b9050919050565b7f4552433732313a20417070726f76616c206e6565646564000000000000000000600082015250565b60006117e4601783611226565b91506117ef826117ae565b602082019050919050565b60006020820190508181036000830152611813816117d7565b9050919050565b7f547279696e6720746f207472616e73666572206120746f6b656e20746865206160008201527f64647265737320646f6573206e6f74206f776e21000000000000000000000000602082015250565b6000611876603483611226565b91506118818261181a565b604082019050919050565b600060208201905081810360008301526118a581611869565b9050919050565b7f6f776e657220696e646578206f7574206f662072616e67650000000000000000600082015250565b60006118e2601883611226565b91506118ed826118ac565b602082019050919050565b60006020820190508181036000830152611911816118d5565b9050919050565b7f4e487b7100000000000000000000000000000000000000000000000000000000600052603260045260246000fd5b7f696e646578206f7574206f662072616e67650000000000000000000000000000600082015250565b600061197d601283611226565b915061198882611947565b602082019050919050565b600060208201905081810360008301526119ac81611970565b9050919050565b7f4f776e65722063616e6e6f742062652074686520302061646472657373000000600082015250565b60006119e9601d83611226565b91506119f4826119b3565b602082019050919050565b60006020820190508181036000830152611a18816119dc565b9050919050565b600081905092915050565b6000611a358261121b565b611a3f8185611a1f565b9350611a4f818560208601611237565b80840191505092915050565b6000611a678284611a2a565b915081905092915050565b7f4e465420616c7265616479206578697374732e00000000000000000000000000600082015250565b6000611aa8601383611226565b9150611ab382611a72565b602082019050919050565b60006020820190508181036000830152611ad781611a9b565b9050919050565b7f4e487b7100000000000000000000000000000000000000000000000000000000600052601160045260246000fd5b6000611b1882611334565b9150611b2383611334565b925082821015611b3657611b35611ade565b5b828203905092915050565b7f4552433732313a206e6f6e2d6578697374656e7420746f6b656e000000000000600082015250565b6000611b77601a83611226565b9150611b8282611b41565b602082019050919050565b60006020820190508181036000830152611ba681611b6a565b9050919050565b7f455243373231205472616e7366657220746f20746865207a65726f206164647260008201527f6573730000000000000000000000000000000000000000000000000000000000602082015250565b6000611c09602383611226565b9150611c1482611bad565b604082019050919050565b60006020820190508181036000830152611c3881611bfc565b9050919050565b6000611c4a82611334565b91506000821415611c5e57611c5d611ade565b5b600182039050919050565b6000611c7482611334565b91507fffffffffffffffffffffffffffffffffffffffffffffffffffffffffffffffff821415611ca757611ca6611ade565b5b600182019050919050565b7f4552433732313a206d696e7420746f2030206164647265737320697320696e7660008201527f616c696400000000000000000000000000000000000000000000000000000000602082015250565b6000611d0e602483611226565b9150611d1982611cb2565b604082019050919050565b60006020820190508181036000830152611d3d81611d01565b9050919050565b7f4552433732313a206d696e74696e67206578697374696e6720746f6b656e0000600082015250565b6000611d7a601e83611226565b9150611d8582611d44565b602082019050919050565b60006020820190508181036000830152611da981611d6d565b905091905056fea26469706673582212209aa22bcfc73f72e7a9c11e4036bace106c285e2450acf3123468c5e159656d1064736f6c634300080b0033",
  "immutableReferences": {},
  "source": "// SPDX-License-Identifier: MIT\npragma solidity ^0.8.11;\nimport './ERC721Connector.sol';\n\ncontract CloseSea is ERC721Connector {\n  string[] public nftArr;\n\n  mapping(string => bool) _nftExists;\n\n  function mint(string memory _nft) public {\n    require(!_nftExists[_nft], 'NFT already exists.');\n\n    nftArr.push(_nft);\n    uint _id = nftArr.length - 1;\n\n    _mint(msg.sender, _id);\n\n    _nftExists[_nft] = true;\n  }\n\n  constructor() ERC721Connector('CloseSea', 'CLS') {}\n}",
  "sourcePath": "/Users/rom/Desktop/close_sea/truffle/contracts/CloseSea.sol",
  "compiler": {
    "name": "solc",
    "version": "0.8.11+commit.d7f03943.Emscripten.clang"
  },
  "schemaVersion": "3.4.4",
  "updatedAt": "2022-01-04T05:49:41.884Z",
  "devdoc": {
    "kind": "dev",
    "methods": {},
    "version": 1
  },
  "userdoc": {
    "kind": "user",
    "methods": {},
    "version": 1
  }
}