{
  "contractName": "CloseSea",
  "abi": [
    {
      "inputs": [],
      "stateMutability": "nonpayable",
      "type": "constructor"
    },
    {
      "anonymous": false,
      "inputs": [
        {
          "indexed": true,
          "internalType": "address",
          "name": "_owner",
          "type": "address"
        },
        {
          "indexed": true,
          "internalType": "address",
          "name": "_approved",
          "type": "address"
        },
        {
          "indexed": true,
          "internalType": "uint256",
          "name": "_tokenId",
          "type": "uint256"
        }
      ],
      "name": "Approval",
      "type": "event"
    },
    {
      "anonymous": false,
      "inputs": [
        {
          "indexed": true,
          "internalType": "address",
          "name": "_from",
          "type": "address"
        },
        {
          "indexed": true,
          "internalType": "address",
          "name": "_to",
          "type": "address"
        },
        {
          "indexed": true,
          "internalType": "uint256",
          "name": "_tokenId",
          "type": "uint256"
        }
      ],
      "name": "Transfer",
      "type": "event"
    },
    {
      "inputs": [
        {
          "internalType": "address",
          "name": "_to",
          "type": "address"
        },
        {
          "internalType": "uint256",
          "name": "_tokenId",
          "type": "uint256"
        }
      ],
      "name": "approve",
      "outputs": [],
      "stateMutability": "nonpayable",
      "type": "function"
    },
    {
      "inputs": [
        {
          "internalType": "address",
          "name": "_owner",
          "type": "address"
        }
      ],
      "name": "balanceOf",
      "outputs": [
        {
          "internalType": "uint256",
          "name": "balance",
          "type": "uint256"
        }
      ],
      "stateMutability": "view",
      "type": "function",
      "constant": true
    },
    {
      "inputs": [],
      "name": "name",
      "outputs": [
        {
          "internalType": "string",
          "name": "",
          "type": "string"
        }
      ],
      "stateMutability": "view",
      "type": "function",
      "constant": true
    },
    {
      "inputs": [
        {
          "internalType": "uint256",
          "name": "",
          "type": "uint256"
        }
      ],
      "name": "nftArr",
      "outputs": [
        {
          "internalType": "string",
          "name": "",
          "type": "string"
        }
      ],
      "stateMutability": "view",
      "type": "function",
      "constant": true
    },
    {
      "inputs": [
        {
          "internalType": "uint256",
          "name": "_tokenId",
          "type": "uint256"
        }
      ],
      "name": "ownerOf",
      "outputs": [
        {
          "internalType": "address",
          "name": "owner",
          "type": "address"
        }
      ],
      "stateMutability": "view",
      "type": "function",
      "constant": true
    },
    {
      "inputs": [
        {
          "internalType": "bytes4",
          "name": "interfaceId",
          "type": "bytes4"
        }
      ],
      "name": "supportsInterface",
      "outputs": [
        {
          "internalType": "bool",
          "name": "",
          "type": "bool"
        }
      ],
      "stateMutability": "view",
      "type": "function",
      "constant": true
    },
    {
      "inputs": [],
      "name": "symbol",
      "outputs": [
        {
          "internalType": "string",
          "name": "",
          "type": "string"
        }
      ],
      "stateMutability": "view",
      "type": "function",
      "constant": true
    },
    {
      "inputs": [
        {
          "internalType": "uint256",
          "name": "index",
          "type": "uint256"
        }
      ],
      "name": "tokenByIndex",
      "outputs": [
        {
          "internalType": "uint256",
          "name": "",
          "type": "uint256"
        }
      ],
      "stateMutability": "view",
      "type": "function",
      "constant": true
    },
    {
      "inputs": [
        {
          "internalType": "address",
          "name": "owner",
          "type": "address"
        },
        {
          "internalType": "uint256",
          "name": "index",
          "type": "uint256"
        }
      ],
      "name": "tokenOfOwnerByIndex",
      "outputs": [
        {
          "internalType": "uint256",
          "name": "",
          "type": "uint256"
        }
      ],
      "stateMutability": "view",
      "type": "function",
      "constant": true
    },
    {
      "inputs": [],
      "name": "totalSupply",
      "outputs": [
        {
          "internalType": "uint256",
          "name": "",
          "type": "uint256"
        }
      ],
      "stateMutability": "view",
      "type": "function",
      "constant": true
    },
    {
      "inputs": [
        {
          "internalType": "address",
          "name": "_from",
          "type": "address"
        },
        {
          "internalType": "address",
          "name": "_to",
          "type": "address"
        },
        {
          "internalType": "uint256",
          "name": "_tokenId",
          "type": "uint256"
        }
      ],
      "name": "transferFrom",
      "outputs": [],
      "stateMutability": "nonpayable",
      "type": "function"
    },
    {
      "inputs": [
        {
          "internalType": "string",
          "name": "_nft",
          "type": "string"
        }
      ],
      "name": "mint",
      "outputs": [],
      "stateMutability": "nonpayable",
      "type": "function"
    }
  ],
  "bytecode": "0x60806040523480156200001157600080fd5b506040518060400160405280600881526020017f436c6f73655365610000000000000000000000000000000000000000000000008152506040518060400160405280600381526020017f434c5300000000000000000000000000000000000000000000000000000000008152508181620000b17f01ffc9a7a5cef8baa21ed3c5c0d7e23accb804b619e9333b597f47a0d84076e26200022a60201b60201c565b620001047f13b182f4c0e5b2efbac0efe6cf6d756c8b89f4b79c5707a043ed9ea740574ee97f7feaf19471f34a12a7eaf32d5f3090aa2260ea8624dc8a138e74e0bf0f623076186200022a60201b60201c565b81600190805190602001906200011c92919062000302565b5080600290805190602001906200013592919062000302565b505050620001ad7f22c82707ba960a14c7592ffb6b8cfaa073fed0048a84cc7fa41f6b5bd8e7f2e47f3a6eb71757dfc6e784c1459d26270140c2c147d95ca985c80026fc5301c3eca17f8a7e378434598edc36d108689a030cbc9d7d465de4f74c71bae1028eed6a881b18186200022a60201b60201c565b620002227f8230223f691b981717299fae9549350a0d894555723531f02108b1f522c1a7977f6da5e1284143cdd2d15038a59bde3be031250f00291d64494c12d967b3a4e0c37fc53637662700e6c65104059db8bba34439e0c32483ab7c34e3ccae52c739549518186200022a60201b60201c565b50506200049a565b63ffffffff60e01b817bffffffffffffffffffffffffffffffffffffffffffffffffffffffff1916141562000296576040517f08c379a00000000000000000000000000000000000000000000000000000000081526004016200028d9062000413565b60405180910390fd5b6001600080837bffffffffffffffffffffffffffffffffffffffffffffffffffffffff19167bffffffffffffffffffffffffffffffffffffffffffffffffffffffff1916815260200190815260200160002060006101000a81548160ff02191690831515021790555050565b828054620003109062000464565b90600052602060002090601f01602090048101928262000334576000855562000380565b82601f106200034f57805160ff191683800117855562000380565b8280016001018555821562000380579182015b828111156200037f57825182559160200191906001019062000362565b5b5090506200038f919062000393565b5090565b5b80821115620003ae57600081600090555060010162000394565b5090565b600082825260208201905092915050565b7f496e76616c696420696e74657266616365204944000000000000000000000000600082015250565b6000620003fb601483620003b2565b91506200040882620003c3565b602082019050919050565b600060208201905081810360008301526200042e81620003ec565b9050919050565b7f4e487b7100000000000000000000000000000000000000000000000000000000600052602260045260246000fd5b600060028204905060018216806200047d57607f821691505b6020821081141562000494576200049362000435565b5b50919050565b611dc180620004aa6000396000f3fe608060405234801561001057600080fd5b50600436106100b45760003560e01c80634f6ccce7116100715780634f6ccce71461018d5780636352211e146101bd578063645d6f52146101ed57806370a082311461021d57806395d89b411461024d578063d85d3d271461026b576100b4565b806301ffc9a7146100b957806306fdde03146100e9578063095ea7b31461010757806318160ddd1461012357806323b872dd146101415780632f745c591461015d575b600080fd5b6100d360048036038101906100ce9190611193565b610287565b6040516100e091906111db565b60405180910390f35b6100f16102ee565b6040516100fe919061128f565b60405180910390f35b610121600480360381019061011c9190611345565b610380565b005b61012b610526565b6040516101389190611394565b60405180910390f35b61015b600480360381019061015691906113af565b610533565b005b61017760048036038101906101729190611345565b610602565b6040516101849190611394565b60405180910390f35b6101a760048036038101906101a29190611402565b6106b2565b6040516101b49190611394565b60405180910390f35b6101d760048036038101906101d29190611402565b610723565b6040516101e4919061143e565b60405180910390f35b61020760048036038101906102029190611402565b610760565b604051610214919061128f565b60405180910390f35b61023760048036038101906102329190611459565b61080c565b6040516102449190611394565b60405180910390f35b6102556108c4565b604051610262919061128f565b60405180910390f35b610285600480360381019061028091906115bb565b610956565b005b6000806000837bffffffffffffffffffffffffffffffffffffffffffffffffffffffff19167bffffffffffffffffffffffffffffffffffffffffffffffffffffffff1916815260200190815260200160002060009054906101000a900460ff169050919050565b6060600180546102fd90611633565b80601f016020809104026020016040519081016040528092919081815260200182805461032990611633565b80156103765780601f1061034b57610100808354040283529160200191610376565b820191906000526020600020905b81548152906001019060200180831161035957829003601f168201915b5050505050905090565b8173ffffffffffffffffffffffffffffffffffffffff166103a082610723565b73ffffffffffffffffffffffffffffffffffffffff1614156103f7576040517f08c379a00000000000000000000000000000000000000000000000000000000081526004016103ee906116d7565b60405180910390fd5b3373ffffffffffffffffffffffffffffffffffffffff1661041782610723565b73ffffffffffffffffffffffffffffffffffffffff161461046d576040517f08c379a000000000000000000000000000000000000000000000000000000000815260040161046490611769565b60405180910390fd5b816005600083815260200190815260200160002060006101000a81548173ffffffffffffffffffffffffffffffffffffffff021916908373ffffffffffffffffffffffffffffffffffffffff160217905550808273ffffffffffffffffffffffffffffffffffffffff166104e083610723565b73ffffffffffffffffffffffffffffffffffffffff167f8c5be1e5ebec7d5bd14f71427d1e84f3dd0314c0f7b2291e5b200ac8c7c3b92560405160405180910390a45050565b6000600680549050905090565b61053d3382610a59565b61057c576040517f08c379a0000000000000000000000000000000000000000000000000000000008152600401610573906117d5565b60405180910390fd5b8273ffffffffffffffffffffffffffffffffffffffff1661059c82610723565b73ffffffffffffffffffffffffffffffffffffffff16146105f2576040517f08c379a00000000000000000000000000000000000000000000000000000000081526004016105e990611867565b60405180910390fd5b6105fd838383610ae8565b505050565b600061060d8361080c565b821061064e576040517f08c379a0000000000000000000000000000000000000000000000000000000008152600401610645906118d3565b60405180910390fd5b600860008473ffffffffffffffffffffffffffffffffffffffff1673ffffffffffffffffffffffffffffffffffffffff168152602001908152602001600020828154811061069f5761069e6118f3565b5b9060005260206000200154905092915050565b60006106bc610526565b82106106fd576040517f08c379a00000000000000000000000000000000000000000000000000000000081526004016106f49061196e565b60405180910390fd5b60068281548110610711576107106118f3565b5b90600052602060002001549050919050565b60006003600083815260200190815260200160002060009054906101000a900473ffffffffffffffffffffffffffffffffffffffff169050919050565b600b818154811061077057600080fd5b90600052602060002001600091509050805461078b90611633565b80601f01602080910402602001604051908101604052809291908181526020018280546107b790611633565b80156108045780601f106107d957610100808354040283529160200191610804565b820191906000526020600020905b8154815290600101906020018083116107e757829003601f168201915b505050505081565b60008073ffffffffffffffffffffffffffffffffffffffff168273ffffffffffffffffffffffffffffffffffffffff16141561087d576040517f08c379a0000000000000000000000000000000000000000000000000000000008152600401610874906119da565b60405180910390fd5b600460008373ffffffffffffffffffffffffffffffffffffffff1673ffffffffffffffffffffffffffffffffffffffff168152602001908152602001600020549050919050565b6060600280546108d390611633565b80601f01602080910402602001604051908101604052809291908181526020018280546108ff90611633565b801561094c5780601f106109215761010080835404028352916020019161094c565b820191906000526020600020905b81548152906001019060200180831161092f57829003601f168201915b5050505050905090565b600c816040516109669190611a36565b908152602001604051809103902060009054906101000a900460ff16156109c2576040517f08c379a00000000000000000000000000000000000000000000000000000000081526004016109b990611a99565b60405180910390fd5b600b819080600181540180825580915050600190039060005260206000200160009091909190915090805190602001906109fd929190611084565b5060006001600b80549050610a129190611ae8565b9050610a1e3382610d2a565b6001600c83604051610a309190611a36565b908152602001604051809103902060006101000a81548160ff0219169083151502179055505050565b6000610a6482610d4b565b610aa3576040517f08c379a0000000000000000000000000000000000000000000000000000000008152600401610a9a90611b68565b60405180910390fd5b6000610aae83610723565b90508373ffffffffffffffffffffffffffffffffffffffff168173ffffffffffffffffffffffffffffffffffffffff161491505092915050565b600073ffffffffffffffffffffffffffffffffffffffff168273ffffffffffffffffffffffffffffffffffffffff161415610b58576040517f08c379a0000000000000000000000000000000000000000000000000000000008152600401610b4f90611bfa565b60405180910390fd5b8273ffffffffffffffffffffffffffffffffffffffff16610b7882610723565b73ffffffffffffffffffffffffffffffffffffffff1614610bce576040517f08c379a0000000000000000000000000000000000000000000000000000000008152600401610bc590611867565b60405180910390fd5b600460008473ffffffffffffffffffffffffffffffffffffffff1673ffffffffffffffffffffffffffffffffffffffff1681526020019081526020016000206000815480929190610c1e90611c1a565b9190505550600460008373ffffffffffffffffffffffffffffffffffffffff1673ffffffffffffffffffffffffffffffffffffffff1681526020019081526020016000206000815480929190610c7390611c44565b9190505550816003600083815260200190815260200160002060006101000a81548173ffffffffffffffffffffffffffffffffffffffff021916908373ffffffffffffffffffffffffffffffffffffffff160217905550808273ffffffffffffffffffffffffffffffffffffffff168473ffffffffffffffffffffffffffffffffffffffff167fddf252ad1be2c89b69c2b068fc378daa952ba7f163c4a11628f55a4df523b3ef60405160405180910390a4505050565b610d348282610db7565b610d3d81610f77565b610d478282610fc0565b5050565b60008073ffffffffffffffffffffffffffffffffffffffff166003600084815260200190815260200160002060009054906101000a900473ffffffffffffffffffffffffffffffffffffffff1673ffffffffffffffffffffffffffffffffffffffff1614159050919050565b600073ffffffffffffffffffffffffffffffffffffffff168273ffffffffffffffffffffffffffffffffffffffff161415610e27576040517f08c379a0000000000000000000000000000000000000000000000000000000008152600401610e1e90611cff565b60405180910390fd5b610e3081610d4b565b15610e70576040517f08c379a0000000000000000000000000000000000000000000000000000000008152600401610e6790611d6b565b60405180910390fd5b816003600083815260200190815260200160002060006101000a81548173ffffffffffffffffffffffffffffffffffffffff021916908373ffffffffffffffffffffffffffffffffffffffff160217905550600460008373ffffffffffffffffffffffffffffffffffffffff1673ffffffffffffffffffffffffffffffffffffffff1681526020019081526020016000206000815480929190610f1290611c44565b9190505550808273ffffffffffffffffffffffffffffffffffffffff16600073ffffffffffffffffffffffffffffffffffffffff167fddf252ad1be2c89b69c2b068fc378daa952ba7f163c4a11628f55a4df523b3ef60405160405180910390a45050565b6006805490506007600083815260200190815260200160002081905550600681908060018154018082558091505060019003906000526020600020016000909190919091505550565b600860008373ffffffffffffffffffffffffffffffffffffffff1673ffffffffffffffffffffffffffffffffffffffff168152602001908152602001600020819080600181540180825580915050600190039060005260206000200160009091909190915055600860008373ffffffffffffffffffffffffffffffffffffffff1673ffffffffffffffffffffffffffffffffffffffff1681526020019081526020016000208054905060096000838152602001908152602001600020819055505050565b82805461109090611633565b90600052602060002090601f0160209004810192826110b257600085556110f9565b82601f106110cb57805160ff19168380011785556110f9565b828001600101855582156110f9579182015b828111156110f85782518255916020019190600101906110dd565b5b509050611106919061110a565b5090565b5b8082111561112357600081600090555060010161110b565b5090565b6000604051905090565b600080fd5b600080fd5b60007fffffffff0000000000000000000000000000000000000000000000000000000082169050919050565b6111708161113b565b811461117b57600080fd5b50565b60008135905061118d81611167565b92915050565b6000602082840312156111a9576111a8611131565b5b60006111b78482850161117e565b91505092915050565b60008115159050919050565b6111d5816111c0565b82525050565b60006020820190506111f060008301846111cc565b92915050565b600081519050919050565b600082825260208201905092915050565b60005b83811015611230578082015181840152602081019050611215565b8381111561123f576000848401525b50505050565b6000601f19601f8301169050919050565b6000611261826111f6565b61126b8185611201565b935061127b818560208601611212565b61128481611245565b840191505092915050565b600060208201905081810360008301526112a98184611256565b905092915050565b600073ffffffffffffffffffffffffffffffffffffffff82169050919050565b60006112dc826112b1565b9050919050565b6112ec816112d1565b81146112f757600080fd5b50565b600081359050611309816112e3565b92915050565b6000819050919050565b6113228161130f565b811461132d57600080fd5b50565b60008135905061133f81611319565b92915050565b6000806040838503121561135c5761135b611131565b5b600061136a858286016112fa565b925050602061137b85828601611330565b9150509250929050565b61138e8161130f565b82525050565b60006020820190506113a96000830184611385565b92915050565b6000806000606084860312156113c8576113c7611131565b5b60006113d6868287016112fa565b93505060206113e7868287016112fa565b92505060406113f886828701611330565b9150509250925092565b60006020828403121561141857611417611131565b5b600061142684828501611330565b91505092915050565b611438816112d1565b82525050565b6000602082019050611453600083018461142f565b92915050565b60006020828403121561146f5761146e611131565b5b600061147d848285016112fa565b91505092915050565b600080fd5b600080fd5b7f4e487b7100000000000000000000000000000000000000000000000000000000600052604160045260246000fd5b6114c882611245565b810181811067ffffffffffffffff821117156114e7576114e6611490565b5b80604052505050565b60006114fa611127565b905061150682826114bf565b919050565b600067ffffffffffffffff82111561152657611525611490565b5b61152f82611245565b9050602081019050919050565b82818337600083830152505050565b600061155e6115598461150b565b6114f0565b90508281526020810184848401111561157a5761157961148b565b5b61158584828561153c565b509392505050565b600082601f8301126115a2576115a1611486565b5b81356115b284826020860161154b565b91505092915050565b6000602082840312156115d1576115d0611131565b5b600082013567ffffffffffffffff8111156115ef576115ee611136565b5b6115fb8482850161158d565b91505092915050565b7f4e487b7100000000000000000000000000000000000000000000000000000000600052602260045260246000fd5b6000600282049050600182168061164b57607f821691505b6020821081141561165f5761165e611604565b5b50919050565b7f43616e6e6f7420617070726f7665206120746f6b656e20796f7520616c72656160008201527f6479206f776e2100000000000000000000000000000000000000000000000000602082015250565b60006116c1602783611201565b91506116cc82611665565b604082019050919050565b600060208201905081810360008301526116f0816116b4565b9050919050565b7f43616e6e6f7420617070726f7665206120746f6b656e20796f7520646f206e6f60008201527f74206f776e210000000000000000000000000000000000000000000000000000602082015250565b6000611753602683611201565b915061175e826116f7565b604082019050919050565b6000602082019050818103600083015261178281611746565b9050919050565b7f4552433732313a20417070726f76616c206e6565646564000000000000000000600082015250565b60006117bf601783611201565b91506117ca82611789565b602082019050919050565b600060208201905081810360008301526117ee816117b2565b9050919050565b7f547279696e6720746f207472616e73666572206120746f6b656e20746865206160008201527f64647265737320646f6573206e6f74206f776e21000000000000000000000000602082015250565b6000611851603483611201565b915061185c826117f5565b604082019050919050565b6000602082019050818103600083015261188081611844565b9050919050565b7f6f776e657220696e646578206f7574206f662072616e67650000000000000000600082015250565b60006118bd601883611201565b91506118c882611887565b602082019050919050565b600060208201905081810360008301526118ec816118b0565b9050919050565b7f4e487b7100000000000000000000000000000000000000000000000000000000600052603260045260246000fd5b7f696e646578206f7574206f662072616e67650000000000000000000000000000600082015250565b6000611958601283611201565b915061196382611922565b602082019050919050565b600060208201905081810360008301526119878161194b565b9050919050565b7f4f776e65722063616e6e6f742062652074686520302061646472657373000000600082015250565b60006119c4601d83611201565b91506119cf8261198e565b602082019050919050565b600060208201905081810360008301526119f3816119b7565b9050919050565b600081905092915050565b6000611a10826111f6565b611a1a81856119fa565b9350611a2a818560208601611212565b80840191505092915050565b6000611a428284611a05565b915081905092915050565b7f4e465420616c7265616479206578697374732e00000000000000000000000000600082015250565b6000611a83601383611201565b9150611a8e82611a4d565b602082019050919050565b60006020820190508181036000830152611ab281611a76565b9050919050565b7f4e487b7100000000000000000000000000000000000000000000000000000000600052601160045260246000fd5b6000611af38261130f565b9150611afe8361130f565b925082821015611b1157611b10611ab9565b5b828203905092915050565b7f4552433732313a206e6f6e2d6578697374656e7420746f6b656e000000000000600082015250565b6000611b52601a83611201565b9150611b5d82611b1c565b602082019050919050565b60006020820190508181036000830152611b8181611b45565b9050919050565b7f455243373231205472616e7366657220746f20746865207a65726f206164647260008201527f6573730000000000000000000000000000000000000000000000000000000000602082015250565b6000611be4602383611201565b9150611bef82611b88565b604082019050919050565b60006020820190508181036000830152611c1381611bd7565b9050919050565b6000611c258261130f565b91506000821415611c3957611c38611ab9565b5b600182039050919050565b6000611c4f8261130f565b91507fffffffffffffffffffffffffffffffffffffffffffffffffffffffffffffffff821415611c8257611c81611ab9565b5b600182019050919050565b7f4552433732313a206d696e7420746f2030206164647265737320697320696e7660008201527f616c696400000000000000000000000000000000000000000000000000000000602082015250565b6000611ce9602483611201565b9150611cf482611c8d565b604082019050919050565b60006020820190508181036000830152611d1881611cdc565b9050919050565b7f4552433732313a206d696e74696e67206578697374696e6720746f6b656e0000600082015250565b6000611d55601e83611201565b9150611d6082611d1f565b602082019050919050565b60006020820190508181036000830152611d8481611d48565b905091905056fea2646970667358221220d4ecd460b8d2dc20a2cb01c54917e1a883872482726d7d927f8e0787f023b51864736f6c634300080b0033",
  "immutableReferences": {},
  "source": "// SPDX-License-Identifier: MIT\npragma solidity ^0.8.11;\nimport './ERC721Connector.sol';\n\ncontract CloseSea is ERC721Connector {\n  string[] public nftArr;\n\n  mapping(string => bool) _nftExists;\n\n  function mint(string memory _nft) public {\n    require(!_nftExists[_nft], 'NFT already exists.');\n\n    nftArr.push(_nft);\n    uint _id = nftArr.length - 1;\n\n    _mint(msg.sender, _id);\n\n    _nftExists[_nft] = true;\n  }\n\n  constructor() ERC721Connector('CloseSea', 'CLS') {}\n}",
  "sourcePath": "/Users/rom/Desktop/close_sea/truffle/contracts/CloseSea.sol",
  "compiler": {
    "name": "solc",
    "version": "0.8.11+commit.d7f03943.Emscripten.clang"
  },
  "schemaVersion": "3.4.4",
  "updatedAt": "2022-01-03T10:45:07.211Z",
  "networkType": "ethereum",
  "devdoc": {
    "kind": "dev",
    "methods": {},
    "version": 1
  },
  "userdoc": {
    "kind": "user",
    "methods": {},
    "version": 1
  }
}