{
  "contractName": "ERC165",
  "abi": [
    {
      "inputs": [],
      "stateMutability": "nonpayable",
      "type": "constructor"
    },
    {
      "inputs": [
        {
          "internalType": "bytes4",
          "name": "interfaceId",
          "type": "bytes4"
        }
      ],
      "name": "supportsInterface",
      "outputs": [
        {
          "internalType": "bool",
          "name": "",
          "type": "bool"
        }
      ],
      "stateMutability": "view",
      "type": "function"
    }
  ],
  "bytecode": "0x608060405234801561001057600080fd5b506100407f01ffc9a7a5cef8baa21ed3c5c0d7e23accb804b619e9333b597f47a0d84076e261004560201b60201c565b610197565b63ffffffff60e01b817bffffffffffffffffffffffffffffffffffffffffffffffffffffffff191614156100ae576040517f08c379a00000000000000000000000000000000000000000000000000000000081526004016100a590610177565b60405180910390fd5b6001600080837bffffffffffffffffffffffffffffffffffffffffffffffffffffffff19167bffffffffffffffffffffffffffffffffffffffffffffffffffffffff1916815260200190815260200160002060006101000a81548160ff02191690831515021790555050565b600082825260208201905092915050565b7f496e76616c696420696e74657266616365204944000000000000000000000000600082015250565b600061016160148361011a565b915061016c8261012b565b602082019050919050565b6000602082019050818103600083015261019081610154565b9050919050565b6101bd806101a66000396000f3fe608060405234801561001057600080fd5b506004361061002b5760003560e01c806301ffc9a714610030575b600080fd5b61004a60048036038101906100459190610124565b610060565b604051610057919061016c565b60405180910390f35b6000806000837bffffffffffffffffffffffffffffffffffffffffffffffffffffffff19167bffffffffffffffffffffffffffffffffffffffffffffffffffffffff1916815260200190815260200160002060009054906101000a900460ff169050919050565b600080fd5b60007fffffffff0000000000000000000000000000000000000000000000000000000082169050919050565b610101816100cc565b811461010c57600080fd5b50565b60008135905061011e816100f8565b92915050565b60006020828403121561013a576101396100c7565b5b60006101488482850161010f565b91505092915050565b60008115159050919050565b61016681610151565b82525050565b6000602082019050610181600083018461015d565b9291505056fea26469706673582212209b3454ef30998b6946c9c0bfe7922ec63a1e13aeaaeb537e0888d7fe311c471864736f6c634300080b0033",
  "immutableReferences": {},
  "source": "// SPDX-License-Identifier: MIT\npragma solidity ^0.8.11;\nimport './interfaces/IERC165.sol';\n\ncontract ERC165 is IERC165 {\n  mapping(bytes4 => bool) private _supportedInterfaces;\n\n  constructor() {\n    _registerInterface(bytes4(keccak256('supportsInterface(bytes4)')));\n  }\n\n  function supportsInterface(bytes4 interfaceId) external view override returns (bool) {\n    return _supportedInterfaces[interfaceId];\n  }\n\n  function _registerInterface(bytes4 interfaceId) internal {\n    require(interfaceId != 0xffffffff, 'Invalid interface ID');\n    _supportedInterfaces[interfaceId] = true;\n  }\n\n}",
  "sourcePath": "/Users/rom/Desktop/close_sea/truffle/contracts/ERC165.sol",
  "compiler": {
    "name": "solc",
    "version": "0.8.11+commit.d7f03943.Emscripten.clang"
  },
  "schemaVersion": "3.4.4",
  "updatedAt": "2022-01-02T21:54:12.272Z",
  "devdoc": {
    "kind": "dev",
    "methods": {},
    "version": 1
  },
  "userdoc": {
    "kind": "user",
    "methods": {},
    "version": 1
  }
}