{
  "contractName": "ERC721",
  "abi": [
    {
      "inputs": [],
      "stateMutability": "nonpayable",
      "type": "constructor"
    },
    {
      "anonymous": false,
      "inputs": [
        {
          "indexed": true,
          "internalType": "address",
          "name": "_owner",
          "type": "address"
        },
        {
          "indexed": true,
          "internalType": "address",
          "name": "_approved",
          "type": "address"
        },
        {
          "indexed": true,
          "internalType": "uint256",
          "name": "_tokenId",
          "type": "uint256"
        }
      ],
      "name": "Approval",
      "type": "event"
    },
    {
      "anonymous": false,
      "inputs": [
        {
          "indexed": true,
          "internalType": "address",
          "name": "_from",
          "type": "address"
        },
        {
          "indexed": true,
          "internalType": "address",
          "name": "_to",
          "type": "address"
        },
        {
          "indexed": true,
          "internalType": "uint256",
          "name": "_tokenId",
          "type": "uint256"
        }
      ],
      "name": "Transfer",
      "type": "event"
    },
    {
      "inputs": [
        {
          "internalType": "bytes4",
          "name": "interfaceId",
          "type": "bytes4"
        }
      ],
      "name": "supportsInterface",
      "outputs": [
        {
          "internalType": "bool",
          "name": "",
          "type": "bool"
        }
      ],
      "stateMutability": "view",
      "type": "function"
    },
    {
      "inputs": [
        {
          "internalType": "address",
          "name": "_owner",
          "type": "address"
        }
      ],
      "name": "balanceOf",
      "outputs": [
        {
          "internalType": "uint256",
          "name": "balance",
          "type": "uint256"
        }
      ],
      "stateMutability": "view",
      "type": "function"
    },
    {
      "inputs": [
        {
          "internalType": "uint256",
          "name": "_tokenId",
          "type": "uint256"
        }
      ],
      "name": "ownerOf",
      "outputs": [
        {
          "internalType": "address",
          "name": "owner",
          "type": "address"
        }
      ],
      "stateMutability": "view",
      "type": "function"
    },
    {
      "inputs": [
        {
          "internalType": "address",
          "name": "_from",
          "type": "address"
        },
        {
          "internalType": "address",
          "name": "_to",
          "type": "address"
        },
        {
          "internalType": "uint256",
          "name": "_tokenId",
          "type": "uint256"
        }
      ],
      "name": "transferFrom",
      "outputs": [],
      "stateMutability": "nonpayable",
      "type": "function"
    },
    {
      "inputs": [
        {
          "internalType": "address",
          "name": "_to",
          "type": "address"
        },
        {
          "internalType": "uint256",
          "name": "_tokenId",
          "type": "uint256"
        }
      ],
      "name": "approve",
      "outputs": [],
      "stateMutability": "nonpayable",
      "type": "function"
    }
  ],
  "bytecode": "0x608060405234801561001057600080fd5b506100407f01ffc9a7a5cef8baa21ed3c5c0d7e23accb804b619e9333b597f47a0d84076e26100b860201b60201c565b6100b37f22c82707ba960a14c7592ffb6b8cfaa073fed0048a84cc7fa41f6b5bd8e7f2e47f3a6eb71757dfc6e784c1459d26270140c2c147d95ca985c80026fc5301c3eca17f8a7e378434598edc36d108689a030cbc9d7d465de4f74c71bae1028eed6a881b18186100b860201b60201c565b61020a565b63ffffffff60e01b817bffffffffffffffffffffffffffffffffffffffffffffffffffffffff19161415610121576040517f08c379a0000000000000000000000000000000000000000000000000000000008152600401610118906101ea565b60405180910390fd5b6001600080837bffffffffffffffffffffffffffffffffffffffffffffffffffffffff19167bffffffffffffffffffffffffffffffffffffffffffffffffffffffff1916815260200190815260200160002060006101000a81548160ff02191690831515021790555050565b600082825260208201905092915050565b7f496e76616c696420696e74657266616365204944000000000000000000000000600082015250565b60006101d460148361018d565b91506101df8261019e565b602082019050919050565b60006020820190508181036000830152610203816101c7565b9050919050565b610f3c806200021a6000396000f3fe608060405234801561001057600080fd5b50600436106100575760003560e01c806301ffc9a71461005c578063095ea7b31461008c57806323b872dd146100a85780636352211e146100c457806370a08231146100f4575b600080fd5b6100766004803603810190610071919061088f565b610124565b60405161008391906108d7565b60405180910390f35b6100a660048036038101906100a19190610986565b61018b565b005b6100c260048036038101906100bd91906109c6565b610331565b005b6100de60048036038101906100d99190610a19565b610400565b6040516100eb9190610a55565b60405180910390f35b61010e60048036038101906101099190610a70565b61043d565b60405161011b9190610aac565b60405180910390f35b6000806000837bffffffffffffffffffffffffffffffffffffffffffffffffffffffff19167bffffffffffffffffffffffffffffffffffffffffffffffffffffffff1916815260200190815260200160002060009054906101000a900460ff169050919050565b8173ffffffffffffffffffffffffffffffffffffffff166101ab82610400565b73ffffffffffffffffffffffffffffffffffffffff161415610202576040517f08c379a00000000000000000000000000000000000000000000000000000000081526004016101f990610b4a565b60405180910390fd5b3373ffffffffffffffffffffffffffffffffffffffff1661022282610400565b73ffffffffffffffffffffffffffffffffffffffff1614610278576040517f08c379a000000000000000000000000000000000000000000000000000000000815260040161026f90610bdc565b60405180910390fd5b816003600083815260200190815260200160002060006101000a81548173ffffffffffffffffffffffffffffffffffffffff021916908373ffffffffffffffffffffffffffffffffffffffff160217905550808273ffffffffffffffffffffffffffffffffffffffff166102eb83610400565b73ffffffffffffffffffffffffffffffffffffffff167f8c5be1e5ebec7d5bd14f71427d1e84f3dd0314c0f7b2291e5b200ac8c7c3b92560405160405180910390a45050565b61033b33826104f5565b61037a576040517f08c379a000000000000000000000000000000000000000000000000000000000815260040161037190610c48565b60405180910390fd5b8273ffffffffffffffffffffffffffffffffffffffff1661039a82610400565b73ffffffffffffffffffffffffffffffffffffffff16146103f0576040517f08c379a00000000000000000000000000000000000000000000000000000000081526004016103e790610cda565b60405180910390fd5b6103fb838383610584565b505050565b60006001600083815260200190815260200160002060009054906101000a900473ffffffffffffffffffffffffffffffffffffffff169050919050565b60008073ffffffffffffffffffffffffffffffffffffffff168273ffffffffffffffffffffffffffffffffffffffff1614156104ae576040517f08c379a00000000000000000000000000000000000000000000000000000000081526004016104a590610d46565b60405180910390fd5b600260008373ffffffffffffffffffffffffffffffffffffffff1673ffffffffffffffffffffffffffffffffffffffff168152602001908152602001600020549050919050565b6000610500826107c6565b61053f576040517f08c379a000000000000000000000000000000000000000000000000000000000815260040161053690610db2565b60405180910390fd5b600061054a83610400565b90508373ffffffffffffffffffffffffffffffffffffffff168173ffffffffffffffffffffffffffffffffffffffff161491505092915050565b600073ffffffffffffffffffffffffffffffffffffffff168273ffffffffffffffffffffffffffffffffffffffff1614156105f4576040517f08c379a00000000000000000000000000000000000000000000000000000000081526004016105eb90610e44565b60405180910390fd5b8273ffffffffffffffffffffffffffffffffffffffff1661061482610400565b73ffffffffffffffffffffffffffffffffffffffff161461066a576040517f08c379a000000000000000000000000000000000000000000000000000000000815260040161066190610cda565b60405180910390fd5b600260008473ffffffffffffffffffffffffffffffffffffffff1673ffffffffffffffffffffffffffffffffffffffff16815260200190815260200160002060008154809291906106ba90610e93565b9190505550600260008373ffffffffffffffffffffffffffffffffffffffff1673ffffffffffffffffffffffffffffffffffffffff168152602001908152602001600020600081548092919061070f90610ebd565b9190505550816001600083815260200190815260200160002060006101000a81548173ffffffffffffffffffffffffffffffffffffffff021916908373ffffffffffffffffffffffffffffffffffffffff160217905550808273ffffffffffffffffffffffffffffffffffffffff168473ffffffffffffffffffffffffffffffffffffffff167fddf252ad1be2c89b69c2b068fc378daa952ba7f163c4a11628f55a4df523b3ef60405160405180910390a4505050565b60008073ffffffffffffffffffffffffffffffffffffffff166001600084815260200190815260200160002060009054906101000a900473ffffffffffffffffffffffffffffffffffffffff1673ffffffffffffffffffffffffffffffffffffffff1614159050919050565b600080fd5b60007fffffffff0000000000000000000000000000000000000000000000000000000082169050919050565b61086c81610837565b811461087757600080fd5b50565b60008135905061088981610863565b92915050565b6000602082840312156108a5576108a4610832565b5b60006108b38482850161087a565b91505092915050565b60008115159050919050565b6108d1816108bc565b82525050565b60006020820190506108ec60008301846108c8565b92915050565b600073ffffffffffffffffffffffffffffffffffffffff82169050919050565b600061091d826108f2565b9050919050565b61092d81610912565b811461093857600080fd5b50565b60008135905061094a81610924565b92915050565b6000819050919050565b61096381610950565b811461096e57600080fd5b50565b6000813590506109808161095a565b92915050565b6000806040838503121561099d5761099c610832565b5b60006109ab8582860161093b565b92505060206109bc85828601610971565b9150509250929050565b6000806000606084860312156109df576109de610832565b5b60006109ed8682870161093b565b93505060206109fe8682870161093b565b9250506040610a0f86828701610971565b9150509250925092565b600060208284031215610a2f57610a2e610832565b5b6000610a3d84828501610971565b91505092915050565b610a4f81610912565b82525050565b6000602082019050610a6a6000830184610a46565b92915050565b600060208284031215610a8657610a85610832565b5b6000610a948482850161093b565b91505092915050565b610aa681610950565b82525050565b6000602082019050610ac16000830184610a9d565b92915050565b600082825260208201905092915050565b7f43616e6e6f7420617070726f7665206120746f6b656e20796f7520616c72656160008201527f6479206f776e2100000000000000000000000000000000000000000000000000602082015250565b6000610b34602783610ac7565b9150610b3f82610ad8565b604082019050919050565b60006020820190508181036000830152610b6381610b27565b9050919050565b7f43616e6e6f7420617070726f7665206120746f6b656e20796f7520646f206e6f60008201527f74206f776e210000000000000000000000000000000000000000000000000000602082015250565b6000610bc6602683610ac7565b9150610bd182610b6a565b604082019050919050565b60006020820190508181036000830152610bf581610bb9565b9050919050565b7f4552433732313a20417070726f76616c206e6565646564000000000000000000600082015250565b6000610c32601783610ac7565b9150610c3d82610bfc565b602082019050919050565b60006020820190508181036000830152610c6181610c25565b9050919050565b7f547279696e6720746f207472616e73666572206120746f6b656e20746865206160008201527f64647265737320646f6573206e6f74206f776e21000000000000000000000000602082015250565b6000610cc4603483610ac7565b9150610ccf82610c68565b604082019050919050565b60006020820190508181036000830152610cf381610cb7565b9050919050565b7f4f776e65722063616e6e6f742062652074686520302061646472657373000000600082015250565b6000610d30601d83610ac7565b9150610d3b82610cfa565b602082019050919050565b60006020820190508181036000830152610d5f81610d23565b9050919050565b7f4552433732313a206e6f6e2d6578697374656e7420746f6b656e000000000000600082015250565b6000610d9c601a83610ac7565b9150610da782610d66565b602082019050919050565b60006020820190508181036000830152610dcb81610d8f565b9050919050565b7f455243373231205472616e7366657220746f20746865207a65726f206164647260008201527f6573730000000000000000000000000000000000000000000000000000000000602082015250565b6000610e2e602383610ac7565b9150610e3982610dd2565b604082019050919050565b60006020820190508181036000830152610e5d81610e21565b9050919050565b7f4e487b7100000000000000000000000000000000000000000000000000000000600052601160045260246000fd5b6000610e9e82610950565b91506000821415610eb257610eb1610e64565b5b600182039050919050565b6000610ec882610950565b91507fffffffffffffffffffffffffffffffffffffffffffffffffffffffffffffffff821415610efb57610efa610e64565b5b60018201905091905056fea2646970667358221220bc6782fb950b58a078136291f732cd6a39d866a538be2d96c34ce7dbd3c72b6564736f6c634300080b0033",
  "immutableReferences": {},
  "source": "// SPDX-License-Identifier: MIT\npragma solidity ^0.8.11;\nimport './ERC165.sol';\nimport './interfaces/IERC721.sol';\n\ncontract ERC721 is ERC165, IERC721 {\n  // Mapping from token id to owner\n  mapping (uint => address) private _tokenOwner;\n\n  // Mapping from owner to number of owned tokens\n  mapping (address => uint) private _ownedTokensCount;\n\n  // Mapping from token id to approved addresses\n  mapping (uint => address) private _tokenApprovals;\n\n  constructor() {\n    _registerInterface(bytes4(keccak256('balanceOf(bytes4)')^\n    keccak256('ownerOf(bytes4)')^keccak256('transferFrom(bytes4)')));\n  }\n\n  function balanceOf(address _owner) public override view returns (uint balance) {\n    require(_owner != address(0), 'Owner cannot be the 0 address');\n    return _ownedTokensCount[_owner];\n  }\n\n  function ownerOf(uint _tokenId) public override view returns (address owner) {\n    return _tokenOwner[_tokenId];\n  }\n\n  function _exists(uint _tokenId) internal view returns (bool) {\n    return _tokenOwner[_tokenId] != address(0);\n  }\n\n  function _mint(address to, uint tokenId) internal virtual {\n    require(to != address(0), 'ERC721: mint to 0 address is invalid');\n    require(!_exists(tokenId), 'ERC721: minting existing token');\n    _tokenOwner[tokenId] = to;\n    _ownedTokensCount[to]++;\n\n    emit Transfer(address(0), to, tokenId);\n  }\n\n  function _transferFrom(address _from, address _to, uint _tokenId) internal {\n    require(_to != address(0), 'ERC721 Transfer to the zero address');\n    require(ownerOf(_tokenId) == _from, 'Trying to transfer a token the address does not own!');\n\n    _ownedTokensCount[_from]--;\n    _ownedTokensCount[_to]++;\n\n    _tokenOwner[_tokenId] = _to;\n\n    emit Transfer(_from, _to, _tokenId);\n  } \n\n  function transferFrom(address _from, address _to, uint _tokenId) override public {\n    require(isApprovedOrOwner(msg.sender, _tokenId), 'ERC721: Approval needed');\n    require(ownerOf(_tokenId) == _from, 'Trying to transfer a token the address does not own!');\n    _transferFrom(_from, _to, _tokenId);\n  }\n\n  function approve(address _to, uint _tokenId) public {\n    require(ownerOf(_tokenId) != _to, 'Cannot approve a token you already own!');\n    require(ownerOf(_tokenId) == msg.sender, 'Cannot approve a token you do not own!');\n\n    _tokenApprovals[_tokenId] = _to;\n\n    emit Approval(ownerOf(_tokenId), _to, _tokenId);\n  }\n\n  function isApprovedOrOwner(address spender, uint tokenId) internal view returns (bool) {\n    require(_exists(tokenId), 'ERC721: non-existent token');\n    address owner = ownerOf(tokenId);\n    return owner == spender;\n  }\n}",
  "sourcePath": "/Users/rom/Desktop/close_sea/truffle/contracts/ERC721.sol",
  "compiler": {
    "name": "solc",
    "version": "0.8.11+commit.d7f03943.Emscripten.clang"
  },
  "schemaVersion": "3.4.4",
  "updatedAt": "2022-01-02T21:54:12.283Z",
  "devdoc": {
    "kind": "dev",
    "methods": {},
    "version": 1
  },
  "userdoc": {
    "kind": "user",
    "methods": {},
    "version": 1
  }
}